{
    "contractName": "Tax",
    "abi": [
        {
            "constant": true,
            "inputs": [],
            "name": "numberOfTaxEvents",
            "outputs": [
                {
                    "name": "",
                    "type": "uint256"
                }
            ],
            "payable": false,
            "stateMutability": "view",
            "type": "function"
        },
        {
            "constant": true,
            "inputs": [],
            "name": "numberOfTaxpayers",
            "outputs": [
                {
                    "name": "",
                    "type": "uint256"
                }
            ],
            "payable": false,
            "stateMutability": "view",
            "type": "function"
        },
        {
            "anonymous": false,
            "inputs": [
                {
                    "indexed": false,
                    "name": "payingAddress",
                    "type": "address"
                },
                {
                    "indexed": false,
                    "name": "paidAmount",
                    "type": "uint256"
                }
            ],
            "name": "paidTax",
            "type": "event"
        },
        {
            "anonymous": false,
            "inputs": [
                {
                    "indexed": false,
                    "name": "added",
                    "type": "bool"
                }
            ],
            "name": "addedTaxpayper",
            "type": "event"
        },
        {
            "constant": false,
            "inputs": [
                {
                    "name": "payerAddress",
                    "type": "address"
                },
                {
                    "name": "payerID",
                    "type": "uint256"
                },
                {
                    "name": "payerName",
                    "type": "bytes32"
                }
            ],
            "name": "addTaxPayer",
            "outputs": [],
            "payable": false,
            "stateMutability": "nonpayable",
            "type": "function"
        },
        {
            "constant": false,
            "inputs": [
                {
                    "name": "payerID",
                    "type": "uint256"
                },
                {
                    "name": "payerAmount",
                    "type": "int256"
                },
                {
                    "name": "payerTaxYear",
                    "type": "uint256"
                }
            ],
            "name": "addTaxForTaxpayer",
            "outputs": [],
            "payable": false,
            "stateMutability": "nonpayable",
            "type": "function"
        },
        {
            "constant": false,
            "inputs": [
                {
                    "name": "payerID",
                    "type": "uint256"
                },
                {
                    "name": "payerAmount",
                    "type": "int256"
                },
                {
                    "name": "payerTaxYear",
                    "type": "uint256"
                }
            ],
            "name": "taxpayerPayingTax",
            "outputs": [],
            "payable": true,
            "stateMutability": "payable",
            "type": "function"
        },
        {
            "constant": true,
            "inputs": [
                {
                    "name": "payerID",
                    "type": "uint256"
                },
                {
                    "name": "selector",
                    "type": "uint256"
                }
            ],
            "name": "getTotalTaxPaidOwedOrBalance",
            "outputs": [
                {
                    "name": "",
                    "type": "int256"
                }
            ],
            "payable": false,
            "stateMutability": "view",
            "type": "function"
        },
        {
            "constant": true,
            "inputs": [],
            "name": "getTotalTaxpayers",
            "outputs": [
                {
                    "name": "",
                    "type": "uint256"
                }
            ],
            "payable": false,
            "stateMutability": "view",
            "type": "function"
        },
        {
            "constant": true,
            "inputs": [
                {
                    "name": "payerID",
                    "type": "uint256"
                }
            ],
            "name": "getTaxpayer",
            "outputs": [
                {
                    "name": "",
                    "type": "address"
                },
                {
                    "name": "",
                    "type": "uint256"
                },
                {
                    "name": "",
                    "type": "bytes32"
                }
            ],
            "payable": false,
            "stateMutability": "view",
            "type": "function"
        }
    ],
    "bytecode": "0x608060405260008055600060015534801561001957600080fd5b50610b88806100296000396000f30060806040526004361061008e576000357c0100000000000000000000000000000000000000000000000000000000900463ffffffff1680630889ba6214610093578063281d4ff2146100d45780634ab47770146100ff578063537c4e82146101825780636ef34920146101ad578063c4690e4b14610208578063df65fb6f14610233578063ef2a7df21461027e575b600080fd5b34801561009f57600080fd5b506100d26004803603810190808035906020019092919080359060200190929190803590602001909291905050506102b2565b005b3480156100e057600080fd5b506100e96103d3565b6040518082815260200191505060405180910390f35b34801561010b57600080fd5b5061012a600480360381019080803590602001909291905050506103d9565b604051808473ffffffffffffffffffffffffffffffffffffffff1673ffffffffffffffffffffffffffffffffffffffff1681526020018381526020018260001916600019168152602001935050505060405180910390f35b34801561018e57600080fd5b5061019761050c565b6040518082815260200191505060405180910390f35b3480156101b957600080fd5b50610206600480360381019080803573ffffffffffffffffffffffffffffffffffffffff169060200190929190803590602001909291908035600019169060200190929190505050610515565b005b34801561021457600080fd5b5061021d610786565b6040518082815260200191505060405180910390f35b34801561023f57600080fd5b50610268600480360381019080803590602001909291908035906020019092919050505061078c565b6040518082815260200191505060405180910390f35b6102b06004803603810190808035906020019092919080359060200190929190803590602001909291905050506109a9565b005b60006004600085815260200190815260200160002060009054906101000a900473ffffffffffffffffffffffffffffffffffffffff1690506001600260008681526020019081526020016000206060604051908101604052808473ffffffffffffffffffffffffffffffffffffffff168152602001868152602001858152509080600181540180825580915050906001820390600052602060002090600302016000909192909190915060008201518160000160006101000a81548173ffffffffffffffffffffffffffffffffffffffff021916908373ffffffffffffffffffffffffffffffffffffffff16021790555060208201518160010155604082015181600201555050505060016000815480929190600101919050555050505050565b60015481565b6000806000806004600086815260200190815260200160002060009054906101000a900473ffffffffffffffffffffffffffffffffffffffff169050600360008273ffffffffffffffffffffffffffffffffffffffff1673ffffffffffffffffffffffffffffffffffffffff16815260200190815260200160002060000160009054906101000a900473ffffffffffffffffffffffffffffffffffffffff16600360008373ffffffffffffffffffffffffffffffffffffffff1673ffffffffffffffffffffffffffffffffffffffff16815260200190815260200160002060010154600360008473ffffffffffffffffffffffffffffffffffffffff1673ffffffffffffffffffffffffffffffffffffffff16815260200190815260200160002060020154935093509350509193909250565b60008054905090565b6000600360008573ffffffffffffffffffffffffffffffffffffffff1673ffffffffffffffffffffffffffffffffffffffff16815260200190815260200160002060000160009054906101000a900473ffffffffffffffffffffffffffffffffffffffff1673ffffffffffffffffffffffffffffffffffffffff161415610713576060604051908101604052808473ffffffffffffffffffffffffffffffffffffffff1681526020018381526020018260001916815250600360008573ffffffffffffffffffffffffffffffffffffffff1673ffffffffffffffffffffffffffffffffffffffff16815260200190815260200160002060008201518160000160006101000a81548173ffffffffffffffffffffffffffffffffffffffff021916908373ffffffffffffffffffffffffffffffffffffffff1602179055506020820151816001015560408201518160020190600019169055905050826004600084815260200190815260200160002060006101000a81548173ffffffffffffffffffffffffffffffffffffffff021916908373ffffffffffffffffffffffffffffffffffffffff16021790555060008081548092919060010191905055507f7dbb6ad4601678e2162878b9d8b01f6d2bc3228715725d5152bf53ed28a01d3c6001604051808215151515815260200191505060405180910390a1610781565b6040517f08c379a00000000000000000000000000000000000000000000000000000000081526004018080602001828103825260178152602001807f54617870617965722065786973747320616c726561647900000000000000000081525060200191505060405180910390fd5b505050565b60005481565b6000806060600080600080945060026000898152602001908152602001600020805480602002602001604051908101604052809291908181526020016000905b828210156108695783829060005260206000209060030201606060405190810160405290816000820160009054906101000a900473ffffffffffffffffffffffffffffffffffffffff1673ffffffffffffffffffffffffffffffffffffffff1673ffffffffffffffffffffffffffffffffffffffff16815260200160018201548152602001600282015481525050815260200190600101906107cc565b50505050935060018714156108bb57600092505b83518310156108b357838381518110151561089457fe5b906020019060200201516020015185019450828060010193505061087d565b84955061099e565b600287141561092c57600091505b835182101561092457600084838151811015156108e257fe5b9060200190602002015160200151121561091757838281518110151561090457fe5b9060200190602002015160200151850194505b81806001019250506108c9565b84955061099e565b600387141561099d57600090505b8351811015610995576000848281518110151561095357fe5b9060200190602002015160200151131561098857838181518110151561097557fe5b9060200190602002015160200151850194505b808060010191505061093a565b84955061099e565b5b505050505092915050565b6000807fffffffffffffffffffffffffffffffffffffffffffffffffffffffffffffffff840291506004600086815260200190815260200160002060009054906101000a900473ffffffffffffffffffffffffffffffffffffffff1690506001600260008781526020019081526020016000206060604051908101604052808473ffffffffffffffffffffffffffffffffffffffff168152602001858152602001868152509080600181540180825580915050906001820390600052602060002090600302016000909192909190915060008201518160000160006101000a81548173ffffffffffffffffffffffffffffffffffffffff021916908373ffffffffffffffffffffffffffffffffffffffff1602179055506020820151816001015560408201518160020155505050506001600081548092919060010191905055507fcaf6614618d0f9712ae68e398ec263a90a158fd10a6bb0104d77f5b5170b3a233334604051808373ffffffffffffffffffffffffffffffffffffffff1673ffffffffffffffffffffffffffffffffffffffff1681526020018281526020019250505060405180910390a150505050505600a165627a7a7230582030b821905999f8a1e89c6ced82d43e01a8a11835a8a499e95f7cbec5a62cdc2a0029",
    "source": "// solium-disable linebreak-style\r\npragma solidity ^0.4.24; //above line is needed\r\n\r\ncontract Tax {\r\n    //events fire immediately as a log to web3, whereas transactions in functions have to be mined for return values\r\n    event paidTax(address payingAddress, uint paidAmount); //can be used as cheaper storage, have web3 grab results\r\n    event addedTaxpayper(bool added);\r\n\r\n    struct Tax {\r\n        address addressOfTaxpayer;\r\n        int amount; //needed instrad for uint for negative numbers, making tax balance go down\r\n        uint taxYear;\r\n    }\r\n\r\n    struct TaxPayer {\r\n        address taxpayerAddress;\r\n        uint nationalID;\r\n        bytes32 name; //string\r\n    }\r\n\r\n    //declares state variables to keep track of total amounts in mapping(the value)\r\n    uint public numberOfTaxpayers = 0;\r\n    uint public numberOfTaxEvents = 0;\r\n\r\n    //key-value pairs, uint/address is key, struct is value\r\n    mapping (uint => Tax[]) taxesForATaxpayer;\r\n    mapping (address => TaxPayer) taxpayers;\r\n    mapping (uint => address) nationalIDRepo; //this is needed for getTaxpayer()\r\n    /*below doesnt work because for tax everytime a tax for a taxpayer is added based on address after the 1st one,\r\n    it will overwrite the previous entry, it will not create a new one because the key(address) already exists\r\n    mapping (uint=> TaxPayer ) public taxpayers; //amt of taxpayers\r\n    mapping (address => Tax) public taxes; //each taxpayer(unique address) has taxes\r\n    */\r\n\r\n\r\n\r\n    //write functions - functions are transactions, will require ether/gas\r\n    //must be unique, a person cannot have >1 tax ids\r\n    function addTaxPayer(address payerAddress, uint payerID, bytes32 payerName) public {\r\n        //checks if the address(key in mapping) exists for that taxpayer\r\n        if (taxpayers[payerAddress].taxpayerAddress == 0x0) { //checks for default value\r\n            //create new taxpayer and save to storage\r\n            taxpayers[payerAddress] = TaxPayer(payerAddress, payerID, payerName);\r\n            nationalIDRepo[payerID] = payerAddress; //needed to search by national id\r\n            numberOfTaxpayers++;\r\n            emit addedTaxpayper(true); //needed, web3 cannot get non-mined results\r\n        } else {\r\n            revert(\"Taxpayer exists already\");\r\n        }\r\n    }\r\n\r\n    //for any person, could be multiple taxes owed\r\n    function addTaxForTaxpayer(uint payerID, int payerAmount, uint payerTaxYear) public {\r\n        address addressKey = nationalIDRepo[payerID];\r\n        //Create new Tax Struct with details and saves it to storage.\r\n        //then add value consecutively to array\r\n        //keys are the array index position, -1 because array 0 indexed\r\n        taxesForATaxpayer[payerID].push(Tax(addressKey, payerAmount, payerTaxYear))-1; \r\n        numberOfTaxEvents++;\r\n        //no need to broadcast event here, not sending any value\r\n    }\r\n\r\n    //when taxpayer pays tax, event broadcast because cannot return value in transaction function\r\n    function taxpayerPayingTax(uint payerID, int payerAmount, uint payerTaxYear) public payable {\r\n        int negativeAmount = payerAmount*(-1); //if taxpayer transaction then tax balance drops, must be a negative number\r\n        address addressKey = nationalIDRepo[payerID];\r\n        //then add value consecutively to array\r\n        //keys are the array index position, -1 because array 0 indexed\r\n        taxesForATaxpayer[payerID].push(Tax(addressKey, negativeAmount, payerTaxYear))-1;\r\n        numberOfTaxEvents++;\r\n        emit paidTax(msg.sender, msg.value); //the current taxpayer address and ether value\r\n    }\r\n\r\n    \r\n\r\n    //read functions - functions are view, aka calls that require no ether/gas\r\n    //for any person, get the current balance, current total paid amt, or current total owed amt\r\n    function getTotalTaxPaidOwedOrBalance(uint payerID, uint selector) public view returns (int) {\r\n        int amtOfTax = 0; // we will return this\r\n        //local(memory) var below doesnt need fixed size initialization because implictly copying array from mapping\r\n        Tax[] memory allTaxes = taxesForATaxpayer[payerID];\r\n        \r\n        //1 = balance, 2 = paid, 3 = owed\r\n        if (selector == 1) {\r\n            //sum balance\r\n            for (uint index = 0; index < allTaxes.length; index++) {\r\n                amtOfTax += allTaxes[index].amount;\r\n            }\r\n            return amtOfTax;\r\n        } else if (selector == 2) {\r\n            //paid amts only\r\n            for (uint index1 = 0; index1 < allTaxes.length; index1++) {\r\n                if (allTaxes[index1].amount < 0) {\r\n                    amtOfTax += allTaxes[index1].amount;\r\n                }\r\n            } \r\n            return amtOfTax;\r\n        } else if (selector == 3) {\r\n            //owed amts only\r\n            for (uint index2 = 0; index2 < allTaxes.length; index2++) {\r\n                if (allTaxes[index2].amount > 0) {\r\n                    amtOfTax += allTaxes[index2].amount;\r\n                }\r\n            } \r\n            return amtOfTax;\r\n        }\r\n    }\r\n\r\n    function getTotalTaxpayers() public view returns(uint) {\r\n        return numberOfTaxpayers;\r\n    }\r\n\r\n    //returns taxpayer information by nationalID, including its address, nationalID, name\r\n    function getTaxpayer(uint payerID) public view returns (address, uint, bytes32) {\r\n        address addressKey = nationalIDRepo[payerID]; //value is the address\r\n        return (taxpayers[addressKey].taxpayerAddress, taxpayers[addressKey].nationalID,\r\n        taxpayers[addressKey].name);\r\n    }\r\n}",
    "sourcePath": "C:\\Users\\aznca\\Desktop\\blockchain-tax\\contracts\\Tax.sol",
    "compiler": {
        "name": "solc",
        "version": "0.4.24+commit.e67f0147.Emscripten.clang"
    },
    "schemaVersion": "2.0.1",
    "updatedAt": "2018-10-09T07:22:18.781Z"
}